:100000000C945D000C9485000C9485000C94850084
:100010000C9485000C9485000C9485000C9485004C
:100020000C9485000C9485000C9485000C94880336
:100030000C9485000C9485000C9485000C9485002C
:100040000C94E6020C9485000C9456030C94300337
:100050000C9485000C9485000C9485000C9485000C
:100060000C9485000C9485000000000024002700FB
:100070002A0000000000250028002B0004040404CE
:100080000404040402020202020203030303030342
:10009000010204081020408001020408102001021F
:1000A00004081020000000080002010000030407FB
:1000B0000000000000000000440411241FBECFEF28
:1000C000D8E0DEBFCDBF11E0A0E0B1E0E6EFF2E1A5
:1000D00002C005900D92A837B107D9F722E0A8E732
:1000E000B1E001C01D92AA35B207E1F710E0CDE5FD
:1000F000D0E004C02197FE010E948107CC35D107D2
:10010000C9F70E94A1040C9479090C940000CF92C5
:10011000DF92EF92FF92DC01A03282E0B807D4F5C3
:10012000A53BB10514F0A4EBB0E04091540228E8DF
:1001300030E0241B310947FD3395220F331F220F76
:10014000331F6901330FEE08FF084091550228E57F
:1001500032E0241B310947FD3395220F331F220F54
:10016000331F032E000C440B550B2C193D094E096F
:100170005F09B7FF02C0B0E0A0E00E94050724EBD2
:1001800030E040E050E00E94DB06C20ED31EE41EC9
:10019000F51ED601E0915302EC3080F52091540217
:1001A00088E890E0821B910927FD9395880F991F9D
:1001B000880F991FA817B90784F02091550288E588
:1001C00092E0821B910927FD9395880F991F880F54
:1001D000991FA817B9070CF4CD010297880F991F32
:1001E0004FB7F8942E2F30E0F901EE0FFF1FE20F0A
:1001F000F31FE25DFD4F928381834FBFFF90EF902D
:10020000DF90CF90089590E0FC01EC55FF4F2491D2
:10021000FC01E057FF4F3491FC01E458FF4FE4919B
:10022000EE23C9F0222339F0233001F1A8F4213064
:1002300019F1223029F1F0E0EE0FFF1FEE58FF4FC9
:10024000A591B4918FB7F894EC91611126C03095C7
:100250003E233C938FBF08952730A9F02830C9F082
:10026000243049F7809180008F7D03C08091800009
:100270008F7780938000DFCF84B58F7784BDDBCF0D
:1002800084B58F7DFBCF8091B0008F778093B000D5
:10029000D2CF8091B0008F7DF9CF3E2BDACF8E3058
:1002A00008F08E508770806480937C0080917A0083
:1002B000806480937A0080917A0086FDFCCF8091E3
:1002C00078009091790008953FB7F89480918D015E
:1002D00090918E01A0918F01B091900126B5A89BBD
:1002E00005C02F3F19F00196A11DB11D3FBFBA2FC8
:1002F000A92F982F8827BC01CD01620F711D811D88
:10030000911D42E0660F771F881F991F4A95D1F70C
:100310000895AF92BF92CF92DF92EF92FF920F9328
:100320001F93CF93DF936C017B018B01040F151F8B
:10033000EB015E01AE18BF08C017D10759F06991F3
:10034000D601ED91FC910190F081E02DC601099557
:10035000892B79F7C501DF91CF911F910F91FF9004
:10036000EF90DF90CF90BF90AF900895FC01538D38
:10037000448D252F30E0842F90E0821B930B54177F
:1003800010F0CF96089501970895FC01918D828D0C
:10039000981761F0A28DAE0FBF2FB11D5D968C91A5
:1003A000928D9F5F9F73928F90E008958FEF9FEFE4
:1003B0000895FC01918D828D981731F0828DE80FA0
:1003C000F11D858D90E008958FEF9FEF0895FC015A
:1003D000918D228D892F90E0805C9F4F821B910927
:1003E0008F739927089581E991E00E94E70121E048
:1003F000892B09F420E0822F089580E090E0892B7A
:1004000029F00E94F30181110C9400000895FC0171
:10041000A48DA80FB92FB11DA35ABF4F2C91848D65
:1004200090E001968F739927848FA689B7892C93C2
:10043000A089B1898C91837080648C93938D848D15
:10044000981306C00288F389E02D80818F7D808318
:100450000895EF92FF920F931F93CF93DF93EC01D8
:1004600081E0888F9B8D8C8D98131AC0E889F9895B
:10047000808185FF15C09FB7F894EE89FF8960835E
:10048000E889F98980818370806480839FBF81E0DF
:1004900090E0DF91CF911F910F91FF90EF90089521
:1004A000F62E0B8D10E00F5F1F4F0F731127E02EFC
:1004B0008C8D8E110CC00FB607FCFACFE889F98934
:1004C000808185FFF5CFCE010E940702F1CFEB8D31
:1004D000EC0FFD2FF11DE35AFF4FF0829FB7F89408
:1004E0000B8FEA89FB8980818062CFCFCF93DF9326
:1004F000EC01888D8823B9F0AA89BB89E889F9893C
:100500008C9185FD03C0808186FD0DC00FB607FC70
:10051000F7CF8C9185FFF2CF808185FFEDCFCE01A3
:100520000E940702E9CFDF91CF91089542E050E0A9
:100530006EE171E081E991E00C948901CF93DF9342
:10054000209179012223B9F0EC014DE050E061E205
:1005500071E081E991E00E9489010E9496024C813C
:100560005D816881798181E991E00E948901DF9153
:10057000CF910C949602DF91CF9108950F931F9322
:10058000CF93DF93EC0188819981009759F02A81FC
:100590003B812617370730F081E0DF91CF911F9123
:1005A0000F9108958B016F5F7F4F0E94AC080097F9
:1005B00059F0998388831B830A832C813D81232BE7
:1005C00059F7FC011082E8CF80E0E7CF1F920F922D
:1005D0000FB60F9211242F933F938F939F93AF9356
:1005E000BF938091890190918A01A0918B01B09174
:1005F0008C013091880123E0230F2D3758F50196A7
:10060000A11DB11D209388018093890190938A01D7
:10061000A0938B01B0938C0180918D0190918E01FC
:10062000A0918F01B09190010196A11DB11D809301
:100630008D0190938E01A0938F01B0939001BF9193
:10064000AF919F918F913F912F910F900FBE0F907F
:100650001F90189526E8230F0296A11DB11DD2CF39
:100660001F920F920FB60F9211242F933F934F9327
:100670005F936F937F938F939F93AF93BF93EF930A
:10068000FF9381E991E00E940702FF91EF91BF91F2
:10069000AF919F918F917F916F915F914F913F911A
:1006A0002F910F900FBE0F901F9018951F920F92D1
:1006B0000FB60F9211242F938F939F93EF93FF9375
:1006C000E091A101F091A2018081E091A701F09158
:1006D000A80182FD1BC090818091AA018F5F8F735A
:1006E0002091AB01821741F0E091AA01F0E0EF56B2
:1006F000FE4F958F8093AA01FF91EF919F918F916B
:100700002F910F900FBE0F901F9018958081F4CFFE
:100710001F920F920FB60F9211242F933F934F9376
:100720005F936F937F938F939F93AF93BF93CF9379
:10073000DF93EF93FF9380917801C0915202D0E054
:1007400087FF24C010928500109284008091780168
:100750008F5F8093780180917801082E000C990BAF
:100760008C179D0724F4809178018C30C4F180911E
:10077000840090918500049680349C4908F47AC0E6
:100780008091840090918500049676C080917801D4
:10079000082E000C990B8C179D07C4F6E091780188
:1007A0008E2FEE0F990BFC01EE0FFF1FE80FF91FC4
:1007B000E25DFD4F808186FFC9CFE09178018E2FE9
:1007C000EE0F990BFC01EE0FFF1FE80FF91FE25D22
:1007D000FD4F808160E08F730E940301B7CF2091AD
:1007E000840030918500E09178018E2FEE0F990BF7
:1007F000FC01EE0FFF1FE80FF91FE25DFD4F818145
:100800009281820F931F9093890080938800E091DA
:1008100078018E2FEE0F990BFC01EE0FFF1FE80FF2
:10082000F91FE25DFD4F808186FF11C0E0917801E4
:100830008E2FEE0F990BFC01EE0FFF1FE80FF91F33
:10084000E25DFD4F808161E08F730E940301FF91A3
:10085000EF91DF91CF91BF91AF919F918F917F9158
:100860006F915F914F913F912F910F900FBE0F901D
:100870001F90189580E49CE99093890080938800EC
:100880008FEF80937801E3CF10929401109293013F
:1008900088EE93E0A0E0B0E08093950190939601FC
:1008A000A0939701B093980180E191E09093920119
:1008B0008093910185EC90E090939E0180939D013F
:1008C00084EC90E09093A00180939F0180EC90E0F5
:1008D0009093A2018093A10181EC90E09093A401F8
:1008E0008093A30182EC90E09093A6018093A501F0
:1008F00086EC90E09093A8018093A7011092AA0142
:100900001092AB011092AC011092AD018091520295
:100910008C3098F491E0980F909352028093530298
:1009200090E0FC01EE0FFF1FE80FF91FE25DFD4FA5
:1009300088EB9BE09283818308958FEF809353022D
:100940000895CF93DF9300D000D000D0CDB7DEB7AD
:10095000789484B5826084BD84B5816084BD85B59A
:10096000826085BD85B5816085BD80916E008160A6
:1009700080936E001092810080918100826080934C
:10098000810080918100816080938100809180004E
:100990008160809380008091B10084608093B10079
:1009A0008091B00081608093B00080917A00846073
:1009B00080937A0080917A00826080937A0080919F
:1009C0007A00816080937A0080917A0080688093B9
:1009D0007A001092C10010927B0110927A0181E09E
:1009E00080937901E091A101F091A20182E08083DE
:1009F000E0919D01F0919E011082E0919F01F091A4
:100A0000A0018FEC80831092A901E091A501F091E3
:100A1000A60186E08083E091A301F091A40180818A
:100A200080618083E091A301F091A40180818860BE
:100A30008083E091A301F091A4018081806880838C
:100A4000E091A301F091A40180818F7D808380914A
:100A500053028C3008F068C0E3E9F0E02491EFE73E
:100A6000F0E08491882399F090E0880F991FFC01B1
:100A7000E859FF4FA591B491FC01EE58FF4F8591C5
:100A800094918FB7F894EC91E22BEC938FBF809107
:100A90005302282F30E0F901EE0FFF1FE20FF31F82
:100AA000E25DFD4F9081907C9360908310925402A0
:100AB000109255022CE0622F0E947507829FB001B0
:100AC000112430E020E0AB01420F531FFA01EE0F7A
:100AD000FF1FE40FF51FE25DFD4F908196FD16C0EC
:100AE0002F5F3F4F2C30310571F781110FC01092ED
:100AF000800082E080938100109285001092840033
:100B0000B19A80916F00826080936F00E0915302F0
:100B10008E2F90E0FC01EE0FFF1FE80FF91FE25D42
:100B2000FD4F80818064808390E080E00E94870098
:100B30001092870110928601109285011092840113
:100B400092E0892E912CA12CB12C2AE6222E312C58
:100B50008091860190918701009709F18F35910569
:100B600021F1109287011092860180918401909169
:100B70008501009709F487C08A36910509F4A2C05F
:100B80001092850110928401E0E0F0E0EF2B01F378
:100B90000E94F3018823E1F20E940000D9CF8FE583
:100BA00090E090938701809386018EE00E944F0130
:100BB0008EE00E944F0181359105BCF21A821982A4
:100BC0001C821B821E821D8269E070E0CE010196AC
:100BD0000E94BE0229813A8181114BC02115310545
:100BE00019F0C9010E9423081A8219821E821D82EF
:100BF0001C821B82CE0101960E949E0289819A81ED
:100C00000E942308E1E0F0E0F0937B01E0937A0199
:100C100000E011E0F801819191918F010E9487001D
:100C20000E9464012B013C0186E9C82ED12CE12CE5
:100C3000F12C0E9464016419750986099709683EC0
:100C4000734081059105A8F321E0C21AD108E1089B
:100C5000F10888EE480E83E0581E611C711CC11417
:100C6000D104E104F10429F791E00630190791F667
:100C700096CF89E090E09E838D836FE271E0C90199
:100C80000E947209B7CF8092800190928101A09258
:100C90008201B09283012FB7F894809189019091DD
:100CA0008A01A0918B01B0918C012FBF80937C01B0
:100CB00090937D01A0937E01B0937F0130928501D6
:100CC000209284012FB7F8948091890190918A0134
:100CD000A0918B01B0918C012FBF40917C0150916C
:100CE0007D0160917E0170917F01841B950BA60BA5
:100CF000B70B409180015091810160918201709108
:100D0000830184179507A607B70708F43DCF8091A4
:100D10007A0190917B018130910599F510927B01C8
:100D200010927A011A8219821C821B821E821D82F5
:100D30006FE170E0CE0101960E94BE0229813A81E6
:100D4000811115C02115310519F0C9010E94230830
:100D50001A8219821E821D821C821B82CE0101967C
:100D60000E949E0289819A810E9423088CCF8FE184
:100D700090E09E838D8369E371E0C9010E9472094E
:100D8000EDCF049709F07FCF1A8219821C821B8253
:100D90001E821D826DE170E0CE0101960E94BE02AE
:100DA00029813A81882371F28DE190E09E838D83C1
:100DB00069E571E0E2CF052E97FB1EF400940E94D6
:100DC000F20657FD07D00E94440707FC03D04EF4FB
:100DD0000C94F20650954095309521953F4F4F4F1A
:100DE0005F4F089590958095709561957F4F8F4FD7
:100DF0009F4F08950E946607A59F900DB49F900D88
:100E0000A49F800D911D11240895B7FF0C94FA063C
:100E10000E94FA06821B930B08952F923F924F92E5
:100E20005F926F927F928F929F92AF92BF92CF927A
:100E3000DF92EF92FF920F931F93CF93DF93CDB783
:100E4000DEB7CA1BDB0B0FB6F894DEBF0FBECDBFFB
:100E500009942A88398848885F846E847D848C84CC
:100E60009B84AA84B984C884DF80EE80FD800C81D5
:100E70001B81AA81B981CE0FD11D0FB6F894DEBFB8
:100E80000FBECDBFED010895A1E21A2EAA1BBB1B18
:100E9000FD010DC0AA1FBB1FEE1FFF1FA217B30746
:100EA000E407F50720F0A21BB30BE40BF50B661F5C
:100EB000771F881F991F1A9469F760957095809520
:100EC00090959B01AC01BD01CF010895A29FB00197
:100ED000B39FC001A39F700D811D1124911DB29F6E
:100EE000700D811D1124911D0895991B79E004C096
:100EF000991F961708F0961B881F7A95C9F7809559
:100F00000895EE0FFF1F0590F491E02D09940F93C3
:100F10001F93CF93DF938230910510F482E090E02D
:100F2000E0915802F091590230E020E0B0E0A0E0FA
:100F3000309799F42115310509F44AC0281B390B63
:100F400024303105D8F58A819B816115710589F1BD
:100F5000FB0193838283FE0111C040815181028194
:100F6000138148175907E0F04817590799F410976B
:100F700061F012960C93129713961C933296CF0140
:100F8000DF91CF911F910F91089500935802109314
:100F90005902F4CF2115310551F04217530738F0AB
:100FA000A901DB019A01BD01DF01F801C1CFEF0109
:100FB000F9CF9093590280935802CDCFFE01E20FF2
:100FC000F31F819391932250310939832883D7CF1E
:100FD0002091560230915702232B41F420910801B1
:100FE0003091090130935702209356022091060157
:100FF000309107012115310541F42DB73EB74091DD
:101000000A0150910B01241B350BE0915602F0911F
:101010005702E217F307A0F42E1B3F0B28173907DE
:1010200078F0AC014E5F5F4F2417350748F04E0F44
:101030005F1F5093570240935602819391939FCF25
:10104000F0E0E0E09CCFCF93DF930097E9F0FC0164
:10105000329713821282A0915802B0915902ED0189
:1010600030E020E01097A1F420813181820F931F9E
:1010700020915602309157022817390709F061C0B4
:10108000F0935702E0935602DF91CF910895EA0161
:10109000CE17DF07E8F54A815B819E0141155105B6
:1010A000B1F7E901FB83EA8349915991C40FD51F38
:1010B000EC17FD0761F4808191810296840F951FE2
:1010C000E90199838883828193819B838A83F0E0FD
:1010D000E0E012968D919C9113970097B9F52D91B0
:1010E0003C911197CD010296820F931F20915602D9
:1010F000309157022817390739F6309751F5109279
:10110000590210925802B0935702A0935602BCCFD6
:10111000D383C28340815181840F951FC817D9079B
:1011200061F44E5F5F4F88819981480F591F518349
:1011300040838A819B81938382832115310509F045
:10114000B0CFF0935902E09358029ECFFD01DC012D
:10115000C0CF13821282D7CFB0E0A0E0E2EBF8E07C
:101160000C940F078C01009751F4CB010E94870764
:101170008C01C801CDB7DEB7E0E10C942B07FC0170
:10118000E60FF71F9C0122503109E217F30708F41C
:101190009DC0D901CD91DC911197C617D70798F062
:1011A000C530D10530F3CE0104978617970708F3B1
:1011B000C61BD70B2297C193D1936D937C93CF011C
:1011C0000E942308D6CF5B01AC1ABD0A4C018C0EDD
:1011D0009D1EA0915802B0915902512C412CF12C26
:1011E000E12C109731F580915602909157028815A5
:1011F000990509F05CC04616570608F058C0809162
:10120000060190910701009741F48DB79EB7409178
:101210000A0150910B01841B950BE817F90708F0A0
:1012200055C0F0935702E0935602F9017183608331
:10123000A0CF8D919C91119712966C901297139656
:101240007C901397A815B90559F56C0142E0C40EBE
:10125000D11CCA14DB0420F1AC014A195B09DA0184
:101260001296159780F06282738251834083D90170
:101270006D937C93E114F10471F0D7011396FC9304
:10128000EE93129776CF22968C0F9D1FF9019183D2
:101290008083F301EFCFF0935902E093580269CFB6
:1012A0004816590608F42C017D01D3019ACFCB01D1
:1012B0000E9487077C01009749F0AE01B8010E94A7
:1012C0006909C8010E942308870153CF10E000E09C
:1012D00050CFFB01DC0102C001900D924150504003
:1012E000D8F70895FB01DC0101900D920020E1F791
:0612F0000895F894FFCF01
:1012F6002800B400000000005A0280000000000030
:1013060029028901B6017602E701C501D9010D0A54
:101316000023232320646562756720232323007737
:10132600616B696E6720757000676F696E67207400
:101336006F20736C6565702066726F6D20617761D2
:101346006B652050454E495300676F696E67207480
:101356006F206177616B652066726F6D206C6973B3
:0813660074656E696E670000FA
:00000001FF
