:100000000C945D000C9485000C9485000C94850084
:100010000C9485000C9485000C9485000C9485004C
:100020000C9485000C9485000C9485000C94D203EC
:100030000C9485000C9485000C9485000C9485002C
:100040000C9430030C9485000C94A0030C947A0358
:100050000C9485000C9485000C9485000C9485000C
:100060000C9485000C94850000000008000201003B
:100070000003040700000000000000000000000072
:10008000250028002B0000000000240027002A0083
:10009000040404040404040402020202020203032E
:1000A0000303030301020408102040800102040836
:1000B00010200102040810208E0411241FBECFEF6F
:1000C000D8E0DEBFCDBF11E0A0E0B1E0EEE3F3E1A8
:1000D00002C005900D92A237B107D9F722E0A2E73E
:1000E000B1E001C01D92A335B207E1F710E0CDE504
:1000F000D0E004C02197FE010E94A507CC35D107AE
:10010000C9F70E94EB040C949D090C940000CF9257
:10011000DF92EF92FF92DC01A03282E0B807D4F5C3
:10012000A53BB10514F0A4EBB0E040914D0228E8E6
:1001300030E0241B310947FD3395220F331F220F76
:10014000331F6901330FEE08FF0840914E0228E586
:1001500032E0241B310947FD3395220F331F220F54
:10016000331F032E000C440B550B2C193D094E096F
:100170005F09B7FF02C0B0E0A0E00E94290724EBAE
:1001800030E040E050E00E94FF06C20ED31EE41EA5
:10019000F51ED601E0914C02EC3080F520914D0225
:1001A00088E890E0821B910927FD9395880F991F9D
:1001B000880F991FA817B90784F020914E0288E58F
:1001C00092E0821B910927FD9395880F991F880F54
:1001D000991FA817B9070CF4CD010297880F991F32
:1001E0004FB7F8942E2F30E0F901EE0FFF1FE20F0A
:1001F000F31FE95DFD4F928381834FBFFF90EF9026
:10020000DF90CF90089590E0FC01EC55FF4F2491D2
:1002100080579F4FFC018491882399F090E0880FCC
:10022000991FFC01EA57FF4FA591B491FC01E458D6
:10023000FF4F859194918FB7F894EC91E22BEC935A
:100240008FBF089590E0FC01E859FF4F2491FC0115
:10025000EC55FF4F3491FC01E057FF4FE491EE2342
:10026000C9F0222339F0233001F1A8F4213019F12B
:10027000223029F1F0E0EE0FFF1FE458FF4FA59167
:10028000B4918FB7F894EC91611126C030953E235C
:100290003C938FBF08952730A9F02830C9F024304F
:1002A00049F7809180008F7D03C0809180008F7717
:1002B00080938000DFCF84B58F7784BDDBCF84B59A
:1002C0008F7DFBCF8091B0008F778093B000D2CF2D
:1002D0008091B0008F7DF9CF3E2BDACF8E3008F0C1
:1002E0008E508770806480937C0080917A00806457
:1002F00080937A0080917A0086FDFCCF809178000F
:100300009091790008953FB7F8948091860190917B
:100310008701A0918801B091890126B5A89B05C0ED
:100320002F3F19F00196A11DB11D3FBFBA2FA92F74
:10033000982F8827BC01CD01620F711D811D911D71
:1003400042E0660F771F881F991F4A95D1F70895DD
:100350008F929F92AF92BF92CF92DF92EF92FF92D5
:100360004B015C010E9483016B017C010E948301AF
:100370006C197D098E099F09683E734081059105BE
:10038000A8F321E0821A9108A108B10888EEC80EEE
:1003900083E0D81EE11CF11C81149104A104B10476
:1003A00029F7FF90EF90DF90CF90BF90AF909F9094
:1003B0008F900895AF92BF92CF92DF92EF92FF920B
:1003C0000F931F93CF93DF936C017B018B01040F7D
:1003D000151FEB015E01AE18BF08C017D10759F019
:1003E0006991D601ED91FC910190F081E02DC6015B
:1003F0000995892B79F7C501DF91CF911F910F9155
:10040000FF90EF90DF90CF90BF90AF900895FC01E8
:10041000538D448D252F30E0842F90E0821B930B69
:10042000541710F0CF96089501970895FC01918D0F
:10043000828D981761F0A28DAE0FBF2FB11D5D9612
:100440008C91928D9F5F9F73928F90E008958FEFB4
:100450009FEF0895FC01918D828D981731F0828D68
:10046000E80FF11D858D90E008958FEF9FEF0895BF
:10047000FC01918D228D892F90E0805C9F4F821B23
:1004800091098F73992708958AE891E00E943802B4
:1004900021E0892B09F420E0822F089580E090E08C
:1004A000892B29F00E94440281110C9400000895C8
:1004B000FC01A48DA80FB92FB11DA35ABF4F2C91D9
:1004C000848D90E001968F739927848FA689B789D0
:1004D0002C93A089B1898C91837080648C93938DC7
:1004E000848D981306C00288F389E02D80818F7D6A
:1004F00080830895EF92FF920F931F93CF93DF9322
:10050000EC0181E0888F9B8D8C8D98131AC0E8894F
:10051000F989808185FF15C09FB7F894EE89FF891E
:100520006083E889F98980818370806480839FBFBC
:1005300081E090E0DF91CF911F910F91FF90EF90BC
:100540000895F62E0B8D10E00F5F1F4F0F731127CC
:10055000E02E8C8D8E110CC00FB607FCFACFE88907
:10056000F989808185FFF5CFCE010E945802F1CF35
:10057000EB8DEC0FFD2FF11DE35AFF4FF0829FB77B
:10058000F8940B8FEA89FB8980818062CFCFCF936B
:10059000DF93EC01888D8823B9F0AA89BB89E889AB
:1005A000F9898C9185FD03C0808186FD0DC00FB651
:1005B00007FCF7CF8C9185FFF2CF808185FFEDCFCF
:1005C000CE010E945802E9CFDF91CF91089542E019
:1005D00050E06EE171E08AE891E00C94DA01CF938B
:1005E000DF93EC014DE050E061E271E08AE891E0D8
:1005F0000E94DA010E94E7024C815D816881798165
:100600008AE891E00E94DA01DF91CF910C94E70231
:100610000F931F93CF93DF93EC018881998100970B
:1006200059F02A813B812617370730F081E0DF91AE
:10063000CF911F910F9108958B016F5F7F4F0E94A3
:10064000D008009759F0998388831B830A832C81F3
:100650003D81232B59F7FC011082E8CF80E0E7CFE2
:100660001F920F920FB60F9211242F933F938F93E7
:100670009F93AF93BF938091820190918301A0914A
:100680008401B09185013091810123E0230F2D3742
:1006900058F50196A11DB11D20938101809382011F
:1006A00090938301A0938401B0938501809186018A
:1006B00090918701A0918801B09189010196A11DB7
:1006C000B11D8093860190938701A0938801B09318
:1006D0008901BF91AF919F918F913F912F910F9081
:1006E0000FBE0F901F90189526E8230F0296A11DAC
:1006F000B11DD2CF1F920F920FB60F9211242F93DC
:100700003F934F935F936F937F938F939F93AF9399
:10071000BF93EF93FF938AE891E00E945802FF9104
:10072000EF91BF91AF919F918F917F916F915F9169
:100730004F913F912F910F900FBE0F901F901895E2
:100740001F920F920FB60F9211242F938F939F93A6
:10075000EF93FF93E0919A01F0919B018081E091EA
:10076000A001F091A10182FD1BC090818091A301A5
:100770008F5F8F732091A401821741F0E091A30154
:10078000F0E0E657FE4F958F8093A301FF91EF9124
:100790009F918F912F910F900FBE0F901F901895E2
:1007A0008081F4CF1F920F920FB60F9211242F93D6
:1007B0003F934F935F936F937F938F939F93AF93E9
:1007C000BF93CF93DF93EF93FF9380917201C0911A
:1007D0004B02D0E087FF24C0109285001092840065
:1007E000809172018F5F8093720180917201082E57
:1007F000000C990B8C179D0724F4809172018C30AA
:10080000C4F18091840090918500049680349C49C5
:1008100008F47AC08091840090918500049676C097
:1008200080917201082E000C990B8C179D07C4F65D
:10083000E09172018E2FEE0F990BFC01EE0FFF1F5E
:10084000E80FF91FE95DFD4F808186FFC9CFE09178
:1008500072018E2FEE0F990BFC01EE0FFF1FE80FB8
:10086000F91FE95DFD4F808160E08F730E942201D6
:10087000B7CF2091840030918500E09172018E2FD6
:10088000EE0F990BFC01EE0FFF1FE80FF91FE95D5A
:10089000FD4F81819281820F931F909389008093F5
:1008A0008800E09172018E2FEE0F990BFC01EE0F84
:1008B000FF1FE80FF91FE95DFD4F808186FF11C022
:1008C000E09172018E2FEE0F990BFC01EE0FFF1FCE
:1008D000E80FF91FE95DFD4F808161E08F730E9491
:1008E0002201FF91EF91DF91CF91BF91AF919F9145
:1008F0008F917F916F915F914F913F912F910F90C9
:100900000FBE0F901F90189580E49CE9909389008A
:10091000809388008FEF80937201E3CF10928D0156
:1009200010928C0188EE93E0A0E0B0E080938E01FD
:1009300090938F01A0939001B093910180E191E099
:1009400090938B0180938A0185EC90E090939701BE
:100950008093960184EC90E09093990180939801A4
:1009600080EC90E090939B0180939A0181EC90E061
:1009700090939D0180939C0182EC90E090939F0165
:1009800080939E0186EC90E09093A1018093A0015A
:100990001092A3011092A4011092A5011092A60139
:1009A00080914B028C3098F491E0980F90934B0219
:1009B00080934C0290E0FC01EE0FFF1FE80FF91F3F
:1009C000E95DFD4F88EB9BE09283818308958FEF73
:1009D00080934C020895CF93DF9300D000D000D0D5
:1009E000CDB7DEB7789484B5826084BD84B581606C
:1009F00084BD85B5826085BD85B5816085BD8091EA
:100A00006E00816080936E00109281008091810061
:100A10008260809381008091810081608093810059
:100A2000809180008160809380008091B10084601B
:100A30008093B1008091B00081608093B00080917C
:100A40007A00846080937A0080917A00826080933B
:100A50007A0080917A00816080937A0080917A0098
:100A6000806880937A001092C100E0919A01F09121
:100A70009B0182E08083E0919601F09197011082C2
:100A8000E0919801F09199018FEC80831092A2017E
:100A9000E0919E01F0919F0186E08083E0919C01AE
:100AA000F0919D01808180618083E0919C01F091B3
:100AB0009D01808188608083E0919C01F0919D017F
:100AC000808180688083E0919C01F0919D0180810C
:100AD0008F7D8083109274011092730180914C027B
:100AE0008C3008F050C083E00E94030180914C02DA
:100AF000282F30E0F901EE0FFF1FE20FF31FE95D31
:100B0000FD4F9081907C9360908310924D021092E3
:100B10004E022CE0622F0E949907829FB00111249F
:100B200030E020E0AB01420F531FFA01EE0FFF1F30
:100B3000E40FF51FE95DFD4F908196FD16C02F5F14
:100B40003F4F2C30310571F781110FC0109280009A
:100B500082E0809381001092850010928400B19A07
:100B600080916F00826080936F00E0914C028E2F25
:100B700090E0FC01EE0FFF1FE80FF91FE95DFD4F4C
:100B800080818064808390E080E00E9487001092E2
:100B9000800110927F0110927E0110927D0180E011
:100BA000882E80E0982EEE24E394F12C20EAC22EC9
:100BB000D12C38E8432E33E1532E612C712C4BEAB3
:100BC000A42EB12C80917F0190918001009769F152
:100BD000803A910571F11092800110927F0180910D
:100BE0007D0190917E01009709F471C08B3A9105C7
:100BF00009F48CC010927E0110927D0185E00E9464
:100C0000030160E085E00E94220168EB7BE080E068
:100C100090E00E94A80181149104A1F20E94440274
:100C2000882381F20E940000CDCFD0928001C09233
:100C30007F018EE00E946E018EE00E946E01813580
:100C400091056CF21A8219821C821B821E821D82FF
:100C500069E070E0CE0101960E94080329813A8183
:100C600081112BC02115310519F0C9010E944708D7
:100C70001A8219821E821D821C821B82CE0101965D
:100C80000E94EF0289819A810E944708F0927401C4
:100C9000E092730100E011E0F801819191918F01E0
:100CA0000E94870066E970E080E090E00E94A80161
:100CB000F1E006301F0781F7B8CF89E090E09E830E
:100CC0008D836FE271E0C9010E949609D7CF4092EF
:100CD000790150927A0160927B0170927C012FB76A
:100CE000F8948091820190918301A0918401B09148
:100CF00085012FBF8093750190937601A0937701B2
:100D0000B0937801B0927E01A0927D012FB7F89444
:100D10008091820190918301A0918401B09185011D
:100D20002FBF4091750150917601609177017091CC
:100D30007801841B950BA60BB70B4091790150915C
:100D40007A0160917B0170917C0184179507A60759
:100D5000B70708F453CF80917301909174018130EB
:100D6000910599F510927401109273011A821982FB
:100D70001C821B821E821D8269E170E0CE010196F9
:100D80000E94080329813A81811115C0211531057E
:100D900019F0C9010E9447081A8219821E821D8219
:100DA0001C821B82CE0101960E94EF0289819A81EA
:100DB0000E9447088CCF89E190E09E838D8369E390
:100DC00071E0C9010E949609EDCF049709F07FCF29
:100DD0001A8219821C821B821E821D826DE170E0C4
:100DE000CE0101960E94080329813A81882371F27D
:100DF0008DE190E09E838D8363E571E0E2CF052E67
:100E000097FB1EF400940E94160757FD07D00E941E
:100E1000680707FC03D04EF40C94160750954095D4
:100E2000309521953F4F4F4F5F4F08959095809596
:100E3000709561957F4F8F4F9F4F08950E948A074D
:100E4000A59F900DB49F900DA49F800D911D11241E
:100E50000895B7FF0C941E070E941E07821B930B78
:100E600008952F923F924F925F926F927F928F924E
:100E70009F92AF92BF92CF92DF92EF92FF920F9329
:100E80001F93CF93DF93CDB7DEB7CA1BDB0B0FB633
:100E9000F894DEBF0FBECDBF09942A8839884888F0
:100EA0005F846E847D848C849B84AA84B984C88486
:100EB000DF80EE80FD800C811B81AA81B981CE0F7D
:100EC000D11D0FB6F894DEBF0FBECDBFED01089562
:100ED000A1E21A2EAA1BBB1BFD010DC0AA1FBB1F3E
:100EE000EE1FFF1FA217B307E407F50720F0A21BB0
:100EF000B30BE40BF50B661F771F881F991F1A941D
:100F000069F760957095809590959B01AC01BD0146
:100F1000CF010895A29FB001B39FC001A39F700DA0
:100F2000811D1124911DB29F700D811D1124911DF1
:100F30000895991B79E004C0991F961708F0961B35
:100F4000881F7A95C9F780950895EE0FFF1F0590C9
:100F5000F491E02D09940F931F93CF93DF93823088
:100F6000910510F482E090E0E0915102F09152027C
:100F700030E020E0B0E0A0E0309799F42115310591
:100F800009F44AC0281B390B24303105D8F58A8171
:100F90009B816115710589F1FB0193838283FE01B9
:100FA00011C0408151810281138148175907E0F037
:100FB0004817590799F4109761F012960C931297FD
:100FC00013961C933296CF01DF91CF911F910F9111
:100FD00008950093510210935202F4CF2115310568
:100FE00051F04217530738F0A901DB019A01BD0106
:100FF000DF01F801C1CFEF01F9CF90935202809346
:101000005102CDCFFE01E20FF31F81939193225045
:10101000310939832883D7CF20914F023091500274
:10102000232B41F4209108013091090130935002A3
:1010300020934F02209106013091070121153105BF
:1010400041F42DB73EB740910A0150910B01241B8A
:10105000350BE0914F02F0915002E217F307A0F434
:101060002E1B3F0B2817390778F0AC014E5F5F4FFE
:101070002417350748F04E0F5F1F509350024093DE
:101080004F02819391939FCFF0E0E0E09CCFCF930C
:10109000DF930097E9F0FC01329713821282A0914E
:1010A0005102B0915202ED0130E020E01097A1F41E
:1010B00020813181820F931F20914F023091500285
:1010C0002817390709F061C0F0935002E0934F02EE
:1010D000DF91CF910895EA01CE17DF07E8F54A8145
:1010E0005B819E0141155105B1F7E901FB83EA835C
:1010F00049915991C40FD51FEC17FD0761F4808108
:1011000091810296840F951FE901998388838281DA
:1011100093819B838A83F0E0E0E012968D919C910D
:1011200013970097B9F52D913C911197CD01029637
:10113000820F931F20914F023091500228173907D8
:1011400039F6309751F51092520210925102B09335
:101150005002A0934F02BCCFD383C2834081518100
:10116000840F951FC817D90761F44E5F5F4F8881C0
:101170009981480F591F518340838A819B819383B2
:1011800082832115310509F0B0CFF0935202E0932C
:1011900051029ECFFD01DC01C0CF13821282D7CF56
:1011A000B0E0A0E0E6EDF8E00C9433078C01009786
:1011B00051F4CB010E94AB078C01C801CDB7DEB75B
:1011C000E0E10C944F07FC01E60FF71F9C01225051
:1011D0003109E217F30708F49DC0D901CD91DC91E4
:1011E0001197C617D70798F0C530D10530F3CE0157
:1011F00004978617970708F3C61BD70B2297C1934E
:10120000D1936D937C93CF010E944708D6CF5B01A9
:10121000AC1ABD0A4C018C0E9D1EA0915102B091DA
:101220005202512C412CF12CE12C109731F5809178
:101230004F02909150028815990509F05CC046163E
:10124000570608F058C08091060190910701009759
:1012500041F48DB79EB740910A0150910B01841B58
:10126000950BE817F90708F055C0F0935002E0938A
:101270004F02F90171836083A0CF8D919C911197EA
:1012800012966C90129713967C901397A815B90537
:1012900059F56C0142E0C40ED11CCA14DB0420F1E4
:1012A000AC014A195B09DA011296159780F0628247
:1012B000738251834083D9016D937C93E114F104CF
:1012C00071F0D7011396FC93EE93129776CF229686
:1012D0008C0F9D1FF90191838083F301EFCFF09371
:1012E0005202E093510269CF4816590608F42C01C6
:1012F0007D01D3019ACFCB010E94AB077C010097FF
:1013000049F0AE01B8010E948D09C8010E9447084A
:10131000870153CF10E000E050CFFB01DC0102C099
:1013200001900D9241505040D8F70895FB01DC0127
:0E13300001900D920020E1F70895F894FFCF90
:10133E002800B400000000005302800000000000EE
:10134E007A02DA010702C702380216022A020D0AD1
:10135E0000232323206465627567202323230077EF
:10136E00616B696E6720757000676F696E672074B8
:10137E006F20736C6565702066726F6D206177618A
:10138E006B6500676F696E6720746F206177616BA4
:10139E00652066726F6D206C697374656E696E6719
:0213AE0000003D
:00000001FF
